{"abi":[{"type":"constructor","inputs":[],"stateMutability":"nonpayable"},{"type":"function","name":"MINIMUM_LIQUIDITY","inputs":[],"outputs":[{"name":"","type":"uint256","internalType":"uint256"}],"stateMutability":"view"},{"type":"function","name":"allowance","inputs":[{"name":"","type":"address","internalType":"address"},{"name":"","type":"address","internalType":"address"}],"outputs":[{"name":"","type":"uint256","internalType":"uint256"}],"stateMutability":"view"},{"type":"function","name":"approve","inputs":[{"name":"spender","type":"address","internalType":"address"},{"name":"value","type":"uint256","internalType":"uint256"}],"outputs":[{"name":"","type":"bool","internalType":"bool"}],"stateMutability":"nonpayable"},{"type":"function","name":"balanceOf","inputs":[{"name":"","type":"address","internalType":"address"}],"outputs":[{"name":"","type":"uint256","internalType":"uint256"}],"stateMutability":"view"},{"type":"function","name":"burn","inputs":[{"name":"to","type":"address","internalType":"address"}],"outputs":[{"name":"amount0","type":"uint256","internalType":"uint256"},{"name":"amount1","type":"uint256","internalType":"uint256"}],"stateMutability":"nonpayable"},{"type":"function","name":"decimals","inputs":[],"outputs":[{"name":"","type":"uint8","internalType":"uint8"}],"stateMutability":"view"},{"type":"function","name":"factory","inputs":[],"outputs":[{"name":"","type":"address","internalType":"address"}],"stateMutability":"view"},{"type":"function","name":"getReserves","inputs":[],"outputs":[{"name":"_reserve0","type":"uint112","internalType":"uint112"},{"name":"_reserve1","type":"uint112","internalType":"uint112"},{"name":"_blockTimestampLast","type":"uint32","internalType":"uint32"}],"stateMutability":"view"},{"type":"function","name":"initialize","inputs":[{"name":"_token0","type":"address","internalType":"address"},{"name":"_token1","type":"address","internalType":"address"}],"outputs":[],"stateMutability":"nonpayable"},{"type":"function","name":"mint","inputs":[{"name":"to","type":"address","internalType":"address"}],"outputs":[{"name":"liquidity","type":"uint256","internalType":"uint256"}],"stateMutability":"nonpayable"},{"type":"function","name":"name","inputs":[],"outputs":[{"name":"","type":"string","internalType":"string"}],"stateMutability":"view"},{"type":"function","name":"skim","inputs":[{"name":"to","type":"address","internalType":"address"}],"outputs":[],"stateMutability":"nonpayable"},{"type":"function","name":"swap","inputs":[{"name":"amount0Out","type":"uint256","internalType":"uint256"},{"name":"amount1Out","type":"uint256","internalType":"uint256"},{"name":"to","type":"address","internalType":"address"}],"outputs":[],"stateMutability":"nonpayable"},{"type":"function","name":"symbol","inputs":[],"outputs":[{"name":"","type":"string","internalType":"string"}],"stateMutability":"view"},{"type":"function","name":"sync","inputs":[],"outputs":[],"stateMutability":"nonpayable"},{"type":"function","name":"token0","inputs":[],"outputs":[{"name":"","type":"address","internalType":"address"}],"stateMutability":"view"},{"type":"function","name":"token1","inputs":[],"outputs":[{"name":"","type":"address","internalType":"address"}],"stateMutability":"view"},{"type":"function","name":"totalSupply","inputs":[],"outputs":[{"name":"","type":"uint256","internalType":"uint256"}],"stateMutability":"view"},{"type":"function","name":"transfer","inputs":[{"name":"to","type":"address","internalType":"address"},{"name":"value","type":"uint256","internalType":"uint256"}],"outputs":[{"name":"","type":"bool","internalType":"bool"}],"stateMutability":"nonpayable"},{"type":"function","name":"transferFrom","inputs":[{"name":"from","type":"address","internalType":"address"},{"name":"to","type":"address","internalType":"address"},{"name":"value","type":"uint256","internalType":"uint256"}],"outputs":[{"name":"","type":"bool","internalType":"bool"}],"stateMutability":"nonpayable"},{"type":"event","name":"Approval","inputs":[{"name":"owner","type":"address","indexed":true,"internalType":"address"},{"name":"spender","type":"address","indexed":true,"internalType":"address"},{"name":"value","type":"uint256","indexed":false,"internalType":"uint256"}],"anonymous":false},{"type":"event","name":"Burn","inputs":[{"name":"sender","type":"address","indexed":true,"internalType":"address"},{"name":"amount0","type":"uint256","indexed":false,"internalType":"uint256"},{"name":"amount1","type":"uint256","indexed":false,"internalType":"uint256"},{"name":"to","type":"address","indexed":true,"internalType":"address"}],"anonymous":false},{"type":"event","name":"Mint","inputs":[{"name":"sender","type":"address","indexed":true,"internalType":"address"},{"name":"amount0","type":"uint256","indexed":false,"internalType":"uint256"},{"name":"amount1","type":"uint256","indexed":false,"internalType":"uint256"}],"anonymous":false},{"type":"event","name":"Swap","inputs":[{"name":"sender","type":"address","indexed":true,"internalType":"address"},{"name":"amount0In","type":"uint256","indexed":false,"internalType":"uint256"},{"name":"amount1In","type":"uint256","indexed":false,"internalType":"uint256"},{"name":"amount0Out","type":"uint256","indexed":false,"internalType":"uint256"},{"name":"amount1Out","type":"uint256","indexed":false,"internalType":"uint256"},{"name":"to","type":"address","indexed":true,"internalType":"address"}],"anonymous":false},{"type":"event","name":"Sync","inputs":[{"name":"reserve0","type":"uint112","indexed":false,"internalType":"uint112"},{"name":"reserve1","type":"uint112","indexed":false,"internalType":"uint112"}],"anonymous":false},{"type":"event","name":"Transfer","inputs":[{"name":"from","type":"address","indexed":true,"internalType":"address"},{"name":"to","type":"address","indexed":true,"internalType":"address"},{"name":"value","type":"uint256","indexed":false,"internalType":"uint256"}],"anonymous":false}],"bytecode":{"object":"0x60a0604052600160085534801562000015575f80fd5b506040518060400160405280600a815260200169041726353776170204c560b41b8152506040518060400160405280600681526020016504152432d4c560d41b815250815f908162000068919062000122565b50600162000077828262000122565b50503360805250620001ee565b634e487b7160e01b5f52604160045260245ffd5b600181811c90821680620000ad57607f821691505b602082108103620000cc57634e487b7160e01b5f52602260045260245ffd5b50919050565b601f8211156200011d57805f5260205f20601f840160051c81016020851015620000f95750805b601f840160051c820191505b818110156200011a575f815560010162000105565b50505b505050565b81516001600160401b038111156200013e576200013e62000084565b62000156816200014f845462000098565b84620000d2565b602080601f8311600181146200018c575f8415620001745750858301515b5f19600386901b1c1916600185901b178555620001e6565b5f85815260208120601f198616915b82811015620001bc578886015182559484019460019091019084016200019b565b5085821015620001da57878501515f19600388901b60f8161c191681555b505060018460011b0185555b505050505050565b608051611af26200020e5f395f81816102cd01526105240152611af25ff3fe608060405234801561000f575f80fd5b5060043610610127575f3560e01c806370a08231116100a9578063bc25cf771161006e578063bc25cf77146102b5578063c45a0155146102c8578063d21220a7146102ef578063dd62ed3e14610302578063fff6cae91461032c575f80fd5b806370a082311461024a57806389afcb441461026957806395d89b4114610291578063a9059cbb14610299578063ba9a7a56146102ac575f80fd5b806323b872dd116100ef57806323b872dd146101e2578063313ce567146101f5578063485cc9551461020f5780636a627842146102245780636d9a640a14610237575f80fd5b806306fdde031461012b5780630902f1ac14610149578063095ea7b31461017d5780630dfe1681146101a057806318160ddd146101cb575b5f80fd5b610133610334565b6040516101409190611861565b60405180910390f35b6101516103bf565b604080516001600160701b03948516815293909216602084015263ffffffff1690820152606001610140565b61019061018b3660046118c3565b6103e9565b6040519015158152602001610140565b6005546101b3906001600160a01b031681565b6040516001600160a01b039091168152602001610140565b6101d460025481565b604051908152602001610140565b6101906101f03660046118eb565b610455565b6101fd601281565b60405160ff9091168152602001610140565b61022261021d366004611924565b610519565b005b6101d4610232366004611955565b6105b4565b61022261024536600461196e565b61083c565b6101d4610258366004611955565b60036020525f908152604090205481565b61027c610277366004611955565b61095b565b60408051928352602083019190915201610140565b610133610d32565b6101906102a73660046118c3565b610d3f565b6101d46103e881565b6102226102c3366004611955565b610d54565b6101b37f000000000000000000000000000000000000000000000000000000000000000081565b6006546101b3906001600160a01b031681565b6101d4610310366004611924565b600460209081525f928352604080842090915290825290205481565b610222610f7c565b5f8054610340906119a0565b80601f016020809104026020016040519081016040528092919081815260200182805461036c906119a0565b80156103b75780601f1061038e576101008083540402835291602001916103b7565b820191905f5260205f20905b81548152906001019060200180831161039a57829003601f168201915b505050505081565b6007546001600160701b0380821692600160701b830490911691600160e01b900463ffffffff1690565b335f8181526004602090815260408083206001600160a01b038716808552925280832085905551919290917f8c5be1e5ebec7d5bd14f71427d1e84f3dd0314c0f7b2291e5b200ac8c7c3b925906104439086815260200190565b60405180910390a35060015b92915050565b6001600160a01b0383165f9081526004602090815260408083203384529091528120545f19811461050357828110156104d55760405162461bcd60e51b815260206004820152601d60248201527f45524332303a20696e73756666696369656e7420616c6c6f77616e636500000060448201526064015b60405180910390fd5b6104df83826119e6565b6001600160a01b0386165f9081526004602090815260408083203384529091529020555b61050e858585611084565b506001949350505050565b336001600160a01b037f000000000000000000000000000000000000000000000000000000000000000016146105865760405162461bcd60e51b815260206004820152601260248201527120b931a9bbb0b81d102327a92124a22222a760711b60448201526064016104cc565b600580546001600160a01b039384166001600160a01b03199182161790915560068054929093169116179055565b5f6008546001146105d75760405162461bcd60e51b81526004016104cc906119f9565b5f6008819055806105e66103bf565b506005546040516370a0823160e01b81523060048201529294509092505f916001600160a01b03909116906370a0823190602401602060405180830381865afa158015610635573d5f803e3d5ffd5b505050506040513d601f19601f820116820180604052508101906106599190611a22565b6006546040516370a0823160e01b81523060048201529192505f916001600160a01b03909116906370a0823190602401602060405180830381865afa1580156106a4573d5f803e3d5ffd5b505050506040513d601f19601f820116820180604052508101906106c89190611a22565b90505f6106de6001600160701b038616846119e6565b90505f6106f46001600160701b038616846119e6565b6002549091505f819003610736576103e86107176107128486611a39565b611159565b61072191906119e6565b975061073161dead6103e86111c7565b61077d565b61077a6001600160701b03881661074d8386611a39565b6107579190611a64565b6001600160701b03881661076b8486611a39565b6107759190611a64565b61124e565b97505b5f88116107db5760405162461bcd60e51b815260206004820152602660248201527f417263537761703a20494e53554646494349454e545f4c49515549444954595f60448201526513525395115160d21b60648201526084016104cc565b6107e589896111c7565b6107ef8585611265565b604080518481526020810184905233917f4c209b5fc8ad50758f13e2e1088ba56a560dff690a1c6fef26394f4c03821c4f910160405180910390a250506001600855509395945050505050565b60085460011461085e5760405162461bcd60e51b81526004016104cc906119f9565b5f6008558215158061086f57505f82115b6108c75760405162461bcd60e51b815260206004820152602360248201527f417263537761703a20494e53554646494349454e545f4f55545055545f414d4f60448201526215539560ea1b60648201526084016104cc565b5f806108d16103bf565b5091509150816001600160701b0316851080156108f65750806001600160701b031684105b6109425760405162461bcd60e51b815260206004820152601f60248201527f417263537761703a20494e53554646494349454e545f4c49515549444954590060448201526064016104cc565b61094f8585858585611372565b50506001600855505050565b5f8060085460011461097f5760405162461bcd60e51b81526004016104cc906119f9565b5f60088190556005546006546040516370a0823160e01b81523060048201526001600160a01b039283169392909116919083906370a0823190602401602060405180830381865afa1580156109d6573d5f803e3d5ffd5b505050506040513d601f19601f820116820180604052508101906109fa9190611a22565b6040516370a0823160e01b81523060048201529091505f906001600160a01b038416906370a0823190602401602060405180830381865afa158015610a41573d5f803e3d5ffd5b505050506040513d601f19601f82011682018060405250810190610a659190611a22565b305f908152600360205260409020546002549192509080610a868584611a39565b610a909190611a64565b975080610a9d8484611a39565b610aa79190611a64565b96505f88118015610ab757505f87115b610b125760405162461bcd60e51b815260206004820152602660248201527f417263537761703a20494e53554646494349454e545f4c49515549444954595f60448201526510955493915160d21b60648201526084016104cc565b610b1c30836115cc565b60405163a9059cbb60e01b81526001600160a01b038a81166004830152602482018a905287169063a9059cbb906044016020604051808303815f875af1158015610b68573d5f803e3d5ffd5b505050506040513d601f19601f82011682018060405250810190610b8c9190611a77565b5060405163a9059cbb60e01b81526001600160a01b038a811660048301526024820189905286169063a9059cbb906044016020604051808303815f875af1158015610bd9573d5f803e3d5ffd5b505050506040513d601f19601f82011682018060405250810190610bfd9190611a77565b506040516370a0823160e01b81523060048201526001600160a01b038716906370a0823190602401602060405180830381865afa158015610c40573d5f803e3d5ffd5b505050506040513d601f19601f82011682018060405250810190610c649190611a22565b6040516370a0823160e01b81523060048201529094506001600160a01b038616906370a0823190602401602060405180830381865afa158015610ca9573d5f803e3d5ffd5b505050506040513d601f19601f82011682018060405250810190610ccd9190611a22565b9250610cd98484611265565b60408051898152602081018990526001600160a01b038b169133917fdccd412f0b1252819cb1fd330b93224ca42612892bb3f4f789976e6d81936496910160405180910390a35050505050506001600881905550915091565b60018054610340906119a0565b5f610d4b338484611084565b50600192915050565b600854600114610d765760405162461bcd60e51b81526004016104cc906119f9565b5f6008556005546007546040516370a0823160e01b81523060048201526001600160a01b039092169163a9059cbb9184916001600160701b039091169084906370a0823190602401602060405180830381865afa158015610dd9573d5f803e3d5ffd5b505050506040513d601f19601f82011682018060405250810190610dfd9190611a22565b610e0791906119e6565b6040516001600160e01b031960e085901b1681526001600160a01b03909216600483015260248201526044016020604051808303815f875af1158015610e4f573d5f803e3d5ffd5b505050506040513d601f19601f82011682018060405250810190610e739190611a77565b506006546007546040516370a0823160e01b81523060048201526001600160a01b039092169163a9059cbb918491600160701b9091046001600160701b03169084906370a0823190602401602060405180830381865afa158015610ed9573d5f803e3d5ffd5b505050506040513d601f19601f82011682018060405250810190610efd9190611a22565b610f0791906119e6565b6040516001600160e01b031960e085901b1681526001600160a01b03909216600483015260248201526044016020604051808303815f875af1158015610f4f573d5f803e3d5ffd5b505050506040513d601f19601f82011682018060405250810190610f739190611a77565b50506001600855565b600854600114610f9e5760405162461bcd60e51b81526004016104cc906119f9565b5f6008556005546040516370a0823160e01b815230600482015261107d916001600160a01b0316906370a0823190602401602060405180830381865afa158015610fea573d5f803e3d5ffd5b505050506040513d601f19601f8201168201806040525081019061100e9190611a22565b6006546040516370a0823160e01b81523060048201526001600160a01b03909116906370a0823190602401602060405180830381865afa158015611054573d5f803e3d5ffd5b505050506040513d601f19601f820116820180604052508101906110789190611a22565b611265565b6001600855565b6001600160a01b0383165f908152600360205260409020548111156110eb5760405162461bcd60e51b815260206004820152601b60248201527f45524332303a20696e73756666696369656e742062616c616e6365000000000060448201526064016104cc565b6001600160a01b038084165f81815260036020526040808220805486900390559285168082529083902080548501905591517fddf252ad1be2c89b69c2b068fc378daa952ba7f163c4a11628f55a4df523b3ef9061114c9085815260200190565b60405180910390a3505050565b5f60038211156111b85750805f611171600283611a64565b61117c906001611a96565b90505b818110156111b2579050806002816111978186611a64565b6111a19190611a96565b6111ab9190611a64565b905061117f565b50919050565b81156111c2575060015b919050565b8060025f8282546111d89190611a96565b90915550506001600160a01b0382165f9081526003602052604081208054839290611204908490611a96565b90915550506040518181526001600160a01b038316905f907fddf252ad1be2c89b69c2b068fc378daa952ba7f163c4a11628f55a4df523b3ef906020015b60405180910390a35050565b5f81831061125c578161125e565b825b9392505050565b6001600160701b03821180159061128357506001600160701b038111155b6112c35760405162461bcd60e51b8152602060048201526011602482015270417263537761703a204f564552464c4f5760781b60448201526064016104cc565b600780546001600160701b03838116600160701b026001600160e01b0319909216908516171790556112fa64010000000042611aa9565b6007805463ffffffff92909216600160e01b026001600160e01b038316811791829055604080516001600160701b03928316948316949094178452600160701b9092041660208301527f1c411e9a96e071241c2f21f7726b17ae89e3cab4c78be50e062b03a9fffbbad1910160405180910390a15050565b6005546006546001600160a01b039182169190811690851682148015906113ab5750806001600160a01b0316856001600160a01b031614155b6113ed5760405162461bcd60e51b8152602060048201526013602482015272417263537761703a20494e56414c49445f544f60681b60448201526064016104cc565b86156114655760405163a9059cbb60e01b81526001600160a01b0386811660048301526024820189905283169063a9059cbb906044016020604051808303815f875af115801561143f573d5f803e3d5ffd5b505050506040513d601f19601f820116820180604052508101906114639190611a77565b505b85156114dd5760405163a9059cbb60e01b81526001600160a01b0386811660048301526024820188905282169063a9059cbb906044016020604051808303815f875af11580156114b7573d5f803e3d5ffd5b505050506040513d601f19601f820116820180604052508101906114db9190611a77565b505b6040516370a0823160e01b81523060048201525f906001600160a01b038416906370a0823190602401602060405180830381865afa158015611521573d5f803e3d5ffd5b505050506040513d601f19601f820116820180604052508101906115459190611a22565b6040516370a0823160e01b81523060048201529091505f906001600160a01b038416906370a0823190602401602060405180830381865afa15801561158c573d5f803e3d5ffd5b505050506040513d601f19601f820116820180604052508101906115b09190611a22565b90506115c182828b8b8a8a8d61164d565b505050505050505050565b6001600160a01b0382165f90815260036020526040812080548392906115f39084906119e6565b925050819055508060025f82825461160b91906119e6565b90915550506040518181525f906001600160a01b038416907fddf252ad1be2c89b69c2b068fc378daa952ba7f163c4a11628f55a4df523b3ef90602001611242565b5f611661866001600160701b0386166119e6565b881161166d575f61168a565b611680866001600160701b0386166119e6565b61168a90896119e6565b90505f6116a0866001600160701b0386166119e6565b88116116ac575f6116c9565b6116bf866001600160701b0386166119e6565b6116c990896119e6565b90505f8211806116d857505f81115b61172f5760405162461bcd60e51b815260206004820152602260248201527f417263537761703a20494e53554646494349454e545f494e5055545f414d4f55604482015261139560f21b60648201526084016104cc565b61173d8989848489896117a7565b6117478989611265565b6040805183815260208101839052908101889052606081018790526001600160a01b0384169033907fd78ad95fa46c994b6551d0da85fc275fe613ce37657fb8d5e3d130840159d8229060800160405180910390a3505050505050505050565b5f6117b3856003611a39565b6117bf886103e8611a39565b6117c991906119e6565b90505f6117d7856003611a39565b6117e3886103e8611a39565b6117ed91906119e6565b90506118056001600160701b03808516908616611a39565b61181290620f4240611a39565b61181c8284611a39565b10156118575760405162461bcd60e51b815260206004820152600a602482015269417263537761703a204b60b01b60448201526064016104cc565b5050505050505050565b5f602080835283518060208501525f5b8181101561188d57858101830151858201604001528201611871565b505f604082860101526040601f19601f8301168501019250505092915050565b80356001600160a01b03811681146111c2575f80fd5b5f80604083850312156118d4575f80fd5b6118dd836118ad565b946020939093013593505050565b5f805f606084860312156118fd575f80fd5b611906846118ad565b9250611914602085016118ad565b9150604084013590509250925092565b5f8060408385031215611935575f80fd5b61193e836118ad565b915061194c602084016118ad565b90509250929050565b5f60208284031215611965575f80fd5b61125e826118ad565b5f805f60608486031215611980575f80fd5b8335925060208401359150611997604085016118ad565b90509250925092565b600181811c908216806119b457607f821691505b6020821081036111b257634e487b7160e01b5f52602260045260245ffd5b634e487b7160e01b5f52601160045260245ffd5b8181038181111561044f5761044f6119d2565b6020808252600f908201526e105c98d4ddd85c0e881313d0d2d151608a1b604082015260600190565b5f60208284031215611a32575f80fd5b5051919050565b808202811582820484141761044f5761044f6119d2565b634e487b7160e01b5f52601260045260245ffd5b5f82611a7257611a72611a50565b500490565b5f60208284031215611a87575f80fd5b8151801515811461125e575f80fd5b8082018082111561044f5761044f6119d2565b5f82611ab757611ab7611a50565b50069056fea2646970667358221220c03619f55d4596cd9736cbac71bf07789f1eb48fcfd8d1a04ca8a686831efb0f64736f6c63430008180033","linkReferences":{}},"methodIdentifiers":{"MINIMUM_LIQUIDITY()":"ba9a7a56","allowance(address,address)":"dd62ed3e","approve(address,uint256)":"095ea7b3","balanceOf(address)":"70a08231","burn(address)":"89afcb44","decimals()":"313ce567","factory()":"c45a0155","getReserves()":"0902f1ac","initialize(address,address)":"485cc955","mint(address)":"6a627842","name()":"06fdde03","skim(address)":"bc25cf77","swap(uint256,uint256,address)":"6d9a640a","symbol()":"95d89b41","sync()":"fff6cae9","token0()":"0dfe1681","token1()":"d21220a7","totalSupply()":"18160ddd","transfer(address,uint256)":"a9059cbb","transferFrom(address,address,uint256)":"23b872dd"},"id":17}