{"abi":[{"type":"constructor","inputs":[{"name":"_name","type":"string","internalType":"string"},{"name":"_symbol","type":"string","internalType":"string"},{"name":"initialSupply","type":"uint256","internalType":"uint256"}],"stateMutability":"nonpayable"},{"type":"function","name":"allowance","inputs":[{"name":"","type":"address","internalType":"address"},{"name":"","type":"address","internalType":"address"}],"outputs":[{"name":"","type":"uint256","internalType":"uint256"}],"stateMutability":"view"},{"type":"function","name":"approve","inputs":[{"name":"spender","type":"address","internalType":"address"},{"name":"value","type":"uint256","internalType":"uint256"}],"outputs":[{"name":"","type":"bool","internalType":"bool"}],"stateMutability":"nonpayable"},{"type":"function","name":"balanceOf","inputs":[{"name":"","type":"address","internalType":"address"}],"outputs":[{"name":"","type":"uint256","internalType":"uint256"}],"stateMutability":"view"},{"type":"function","name":"decimals","inputs":[],"outputs":[{"name":"","type":"uint8","internalType":"uint8"}],"stateMutability":"view"},{"type":"function","name":"faucet","inputs":[{"name":"amount","type":"uint256","internalType":"uint256"}],"outputs":[],"stateMutability":"nonpayable"},{"type":"function","name":"name","inputs":[],"outputs":[{"name":"","type":"string","internalType":"string"}],"stateMutability":"view"},{"type":"function","name":"symbol","inputs":[],"outputs":[{"name":"","type":"string","internalType":"string"}],"stateMutability":"view"},{"type":"function","name":"totalSupply","inputs":[],"outputs":[{"name":"","type":"uint256","internalType":"uint256"}],"stateMutability":"view"},{"type":"function","name":"transfer","inputs":[{"name":"to","type":"address","internalType":"address"},{"name":"value","type":"uint256","internalType":"uint256"}],"outputs":[{"name":"","type":"bool","internalType":"bool"}],"stateMutability":"nonpayable"},{"type":"function","name":"transferFrom","inputs":[{"name":"from","type":"address","internalType":"address"},{"name":"to","type":"address","internalType":"address"},{"name":"value","type":"uint256","internalType":"uint256"}],"outputs":[{"name":"","type":"bool","internalType":"bool"}],"stateMutability":"nonpayable"},{"type":"event","name":"Approval","inputs":[{"name":"owner","type":"address","indexed":true,"internalType":"address"},{"name":"spender","type":"address","indexed":true,"internalType":"address"},{"name":"value","type":"uint256","indexed":false,"internalType":"uint256"}],"anonymous":false},{"type":"event","name":"Transfer","inputs":[{"name":"from","type":"address","indexed":true,"internalType":"address"},{"name":"to","type":"address","indexed":true,"internalType":"address"},{"name":"value","type":"uint256","indexed":false,"internalType":"uint256"}],"anonymous":false}],"bytecode":{"object":"0x608060405234801562000010575f80fd5b5060405162000ad938038062000ad98339810160408190526200003391620001b0565b5f620000408482620002a8565b5060016200004f8382620002a8565b506200005c338262000065565b5050506200039a565b8060025f82825462000078919062000374565b90915550506001600160a01b0382165f9081526003602052604081208054839290620000a690849062000374565b90915550506040518181526001600160a01b038316905f907fddf252ad1be2c89b69c2b068fc378daa952ba7f163c4a11628f55a4df523b3ef9060200160405180910390a35050565b634e487b7160e01b5f52604160045260245ffd5b5f82601f83011262000113575f80fd5b81516001600160401b0380821115620001305762000130620000ef565b604051601f8301601f19908116603f011681019082821181831017156200015b576200015b620000ef565b816040528381526020925086602085880101111562000178575f80fd5b5f91505b838210156200019b57858201830151818301840152908201906200017c565b5f602085830101528094505050505092915050565b5f805f60608486031215620001c3575f80fd5b83516001600160401b0380821115620001da575f80fd5b620001e88783880162000103565b94506020860151915080821115620001fe575f80fd5b506200020d8682870162000103565b925050604084015190509250925092565b600181811c908216806200023357607f821691505b6020821081036200025257634e487b7160e01b5f52602260045260245ffd5b50919050565b601f821115620002a357805f5260205f20601f840160051c810160208510156200027f5750805b601f840160051c820191505b81811015620002a0575f81556001016200028b565b50505b505050565b81516001600160401b03811115620002c457620002c4620000ef565b620002dc81620002d584546200021e565b8462000258565b602080601f83116001811462000312575f8415620002fa5750858301515b5f19600386901b1c1916600185901b1785556200036c565b5f85815260208120601f198616915b82811015620003425788860151825594840194600190910190840162000321565b50858210156200036057878501515f19600388901b60f8161c191681555b505060018460011b0185555b505050505050565b808201808211156200039457634e487b7160e01b5f52601160045260245ffd5b92915050565b61073180620003a85f395ff3fe608060405234801561000f575f80fd5b506004361061009b575f3560e01c80635791589711610063578063579158971461012457806370a082311461013957806395d89b4114610158578063a9059cbb14610160578063dd62ed3e14610173575f80fd5b806306fdde031461009f578063095ea7b3146100bd57806318160ddd146100e057806323b872dd146100f7578063313ce5671461010a575b5f80fd5b6100a761019d565b6040516100b49190610559565b60405180910390f35b6100d06100cb3660046105c0565b610228565b60405190151581526020016100b4565b6100e960025481565b6040519081526020016100b4565b6100d06101053660046105e8565b610294565b610112601281565b60405160ff90911681526020016100b4565b610137610132366004610621565b610362565b005b6100e9610147366004610638565b60036020525f908152604090205481565b6100a76103dc565b6100d061016e3660046105c0565b6103e9565b6100e9610181366004610658565b600460209081525f928352604080842090915290825290205481565b5f80546101a990610689565b80601f01602080910402602001604051908101604052809291908181526020018280546101d590610689565b80156102205780601f106101f757610100808354040283529160200191610220565b820191905f5260205f20905b81548152906001019060200180831161020357829003601f168201915b505050505081565b335f8181526004602090815260408083206001600160a01b038716808552925280832085905551919290917f8c5be1e5ebec7d5bd14f71427d1e84f3dd0314c0f7b2291e5b200ac8c7c3b925906102829086815260200190565b60405180910390a35060015b92915050565b6001600160a01b0383165f9081526004602090815260408083203384529091528120545f19811461034c578281101561031e5760405162461bcd60e51b815260206004820152602160248201527f54657374546f6b656e3a20696e73756666696369656e7420616c6c6f77616e636044820152606560f81b60648201526084015b60405180910390fd5b61032883826106d5565b6001600160a01b0386165f9081526004602090815260408083203384529091529020555b6103578585856103fe565b506001949350505050565b69021e19e0c9bab24000008111156103cf5760405162461bcd60e51b815260206004820152602a60248201527f54657374546f6b656e3a20666175636574206c696d69742069732031302c30306044820152690c081c195c8818d85b1b60b21b6064820152608401610315565b6103d933826104d3565b50565b600180546101a990610689565b5f6103f53384846103fe565b50600192915050565b6001600160a01b0383165f908152600360205260409020548111156104655760405162461bcd60e51b815260206004820152601f60248201527f54657374546f6b656e3a20696e73756666696369656e742062616c616e6365006044820152606401610315565b6001600160a01b038084165f81815260036020526040808220805486900390559285168082529083902080548501905591517fddf252ad1be2c89b69c2b068fc378daa952ba7f163c4a11628f55a4df523b3ef906104c69085815260200190565b60405180910390a3505050565b8060025f8282546104e491906106e8565b90915550506001600160a01b0382165f90815260036020526040812080548392906105109084906106e8565b90915550506040518181526001600160a01b038316905f907fddf252ad1be2c89b69c2b068fc378daa952ba7f163c4a11628f55a4df523b3ef9060200160405180910390a35050565b5f602080835283518060208501525f5b8181101561058557858101830151858201604001528201610569565b505f604082860101526040601f19601f8301168501019250505092915050565b80356001600160a01b03811681146105bb575f80fd5b919050565b5f80604083850312156105d1575f80fd5b6105da836105a5565b946020939093013593505050565b5f805f606084860312156105fa575f80fd5b610603846105a5565b9250610611602085016105a5565b9150604084013590509250925092565b5f60208284031215610631575f80fd5b5035919050565b5f60208284031215610648575f80fd5b610651826105a5565b9392505050565b5f8060408385031215610669575f80fd5b610672836105a5565b9150610680602084016105a5565b90509250929050565b600181811c9082168061069d57607f821691505b6020821081036106bb57634e487b7160e01b5f52602260045260245ffd5b50919050565b634e487b7160e01b5f52601160045260245ffd5b8181038181111561028e5761028e6106c1565b8082018082111561028e5761028e6106c156fea2646970667358221220ef8cac338d0c7a04e0582da7d5ae45e243fd179da1f4949163a4f1e560d0761664736f6c63430008180033","linkReferences":{}},"methodIdentifiers":{"allowance(address,address)":"dd62ed3e","approve(address,uint256)":"095ea7b3","balanceOf(address)":"70a08231","decimals()":"313ce567","faucet(uint256)":"57915897","name()":"06fdde03","symbol()":"95d89b41","totalSupply()":"18160ddd","transfer(address,uint256)":"a9059cbb","transferFrom(address,address,uint256)":"23b872dd"},"id":19}