{"abi":[{"type":"constructor","inputs":[{"name":"_factory","type":"address","internalType":"address"}],"stateMutability":"nonpayable"},{"type":"function","name":"addLiquidity","inputs":[{"name":"tokenA","type":"address","internalType":"address"},{"name":"tokenB","type":"address","internalType":"address"},{"name":"amountADesired","type":"uint256","internalType":"uint256"},{"name":"amountBDesired","type":"uint256","internalType":"uint256"},{"name":"amountAMin","type":"uint256","internalType":"uint256"},{"name":"amountBMin","type":"uint256","internalType":"uint256"},{"name":"to","type":"address","internalType":"address"},{"name":"deadline","type":"uint256","internalType":"uint256"}],"outputs":[{"name":"amountA","type":"uint256","internalType":"uint256"},{"name":"amountB","type":"uint256","internalType":"uint256"},{"name":"liquidity","type":"uint256","internalType":"uint256"}],"stateMutability":"nonpayable"},{"type":"function","name":"factory","inputs":[],"outputs":[{"name":"","type":"address","internalType":"contract ArcSwapFactory"}],"stateMutability":"view"},{"type":"function","name":"getAmountOut","inputs":[{"name":"amountIn","type":"uint256","internalType":"uint256"},{"name":"reserveIn","type":"uint256","internalType":"uint256"},{"name":"reserveOut","type":"uint256","internalType":"uint256"}],"outputs":[{"name":"amountOut","type":"uint256","internalType":"uint256"}],"stateMutability":"pure"},{"type":"function","name":"getAmountsOut","inputs":[{"name":"amountIn","type":"uint256","internalType":"uint256"},{"name":"path","type":"address[]","internalType":"address[]"}],"outputs":[{"name":"amounts","type":"uint256[]","internalType":"uint256[]"}],"stateMutability":"view"},{"type":"function","name":"removeLiquidity","inputs":[{"name":"tokenA","type":"address","internalType":"address"},{"name":"tokenB","type":"address","internalType":"address"},{"name":"liquidity","type":"uint256","internalType":"uint256"},{"name":"amountAMin","type":"uint256","internalType":"uint256"},{"name":"amountBMin","type":"uint256","internalType":"uint256"},{"name":"to","type":"address","internalType":"address"},{"name":"deadline","type":"uint256","internalType":"uint256"}],"outputs":[{"name":"amountA","type":"uint256","internalType":"uint256"},{"name":"amountB","type":"uint256","internalType":"uint256"}],"stateMutability":"nonpayable"},{"type":"function","name":"swapExactTokensForTokens","inputs":[{"name":"amountIn","type":"uint256","internalType":"uint256"},{"name":"amountOutMin","type":"uint256","internalType":"uint256"},{"name":"path","type":"address[]","internalType":"address[]"},{"name":"to","type":"address","internalType":"address"},{"name":"deadline","type":"uint256","internalType":"uint256"}],"outputs":[{"name":"amounts","type":"uint256[]","internalType":"uint256[]"}],"stateMutability":"nonpayable"}],"bytecode":{"object":"0x60a060405234801561000f575f80fd5b5060405161182138038061182183398101604081905261002e9161003f565b6001600160a01b031660805261006c565b5f6020828403121561004f575f80fd5b81516001600160a01b0381168114610065575f80fd5b9392505050565b60805161176d6100b45f395f818160d70152818161033d0152818161056e015281816108be01528181610d1201528181610df701528181610ff20152611094015261176d5ff3fe608060405234801561000f575f80fd5b5060043610610060575f3560e01c8063054d50d41461006457806338ed17391461008a578063baa2abde146100aa578063c45a0155146100d2578063d06ca61f14610111578063e8e3370014610124575b5f80fd5b610077610072366004611277565b610152565b6040519081526020015b60405180910390f35b61009d6100983660046112c7565b610257565b6040516100819190611361565b6100bd6100b83660046113a4565b610522565b60408051928352602083019190915201610081565b6100f97f000000000000000000000000000000000000000000000000000000000000000081565b6040516001600160a01b039091168152602001610081565b61009d61011f366004611425565b6107f3565b6101376101323660046114f1565b610a9a565b60408051938452602084019290925290820152606001610081565b5f8084116101b25760405162461bcd60e51b815260206004820152602260248201527f417263537761703a20494e53554646494349454e545f494e5055545f414d4f55604482015261139560f21b60648201526084015b60405180910390fd5b5f831180156101c057505f82115b61020c5760405162461bcd60e51b815260206004820152601f60248201527f417263537761703a20494e53554646494349454e545f4c49515549444954590060448201526064016101a9565b5f610219856103e561157c565b90505f610226848361157c565b90505f82610236876103e861157c565b6102409190611599565b905061024c81836115ac565b979650505050505050565b6060814281101561027a5760405162461bcd60e51b81526004016101a9906115cb565b6102b6888787808060200260200160405190810160405280939291908181526020018383602002808284375f920191909152506107f392505050565b91508682600184516102c891906115f5565b815181106102d8576102d8611608565b6020026020010151101561033a5760405162461bcd60e51b815260206004820152602360248201527f417263537761703a20494e53554646494349454e545f4f55545055545f414d4f60448201526215539560ea1b60648201526084016101a9565b5f7f00000000000000000000000000000000000000000000000000000000000000006001600160a01b031663e6a4390588885f81811061037c5761037c611608565b9050602002016020810190610391919061161c565b898960018181106103a4576103a4611608565b90506020020160208101906103b9919061161c565b6040516001600160e01b031960e085901b1681526001600160a01b03928316600482015291166024820152604401602060405180830381865afa158015610402573d5f803e3d5ffd5b505050506040513d601f19601f82011682018060405250810190610426919061163e565b905086865f81811061043a5761043a611608565b905060200201602081019061044f919061161c565b6001600160a01b03166323b872dd3383865f8151811061047157610471611608565b60200260200101516040518463ffffffff1660e01b815260040161049793929190611659565b6020604051808303815f875af11580156104b3573d5f803e3d5ffd5b505050506040513d601f19601f820116820180604052508101906104d7919061167d565b50610516838888808060200260200160405190810160405280939291908181526020018383602002808284375f920191909152508a9250610c32915050565b50509695505050505050565b5f8082428110156105455760405162461bcd60e51b81526004016101a9906115cb565b60405163e6a4390560e01b81526001600160a01b038b811660048301528a811660248301525f917f00000000000000000000000000000000000000000000000000000000000000009091169063e6a4390590604401602060405180830381865afa1580156105b5573d5f803e3d5ffd5b505050506040513d601f19601f820116820180604052508101906105d9919061163e565b90506001600160a01b03811661062b5760405162461bcd60e51b8152602060048201526017602482015276105c98d4ddd85c0e881410525497d393d517d193d55391604a1b60448201526064016101a9565b6040516323b872dd60e01b81526001600160a01b038216906323b872dd9061065b90339085908e90600401611659565b6020604051808303815f875af1158015610677573d5f803e3d5ffd5b505050506040513d601f19601f8201168201806040525081019061069b919061167d565b5060405163226bf2d160e21b81526001600160a01b0387811660048301525f9182918416906389afcb449060240160408051808303815f875af11580156106e4573d5f803e3d5ffd5b505050506040513d601f19601f82011682018060405250810190610708919061169c565b915091505f6107178e8e610ee1565b509050806001600160a01b03168e6001600160a01b03161461073a57818361073d565b82825b90975095508a8710156107925760405162461bcd60e51b815260206004820152601e60248201527f417263537761703a20494e53554646494349454e545f415f414d4f554e54000060448201526064016101a9565b898610156107e25760405162461bcd60e51b815260206004820152601e60248201527f417263537761703a20494e53554646494349454e545f425f414d4f554e54000060448201526064016101a9565b505050505097509795505050505050565b606060028251101561083f5760405162461bcd60e51b8152602060048201526015602482015274082e4c6a6eec2e07440929cac82989288bea082a89605b1b60448201526064016101a9565b815167ffffffffffffffff81111561085957610859611411565b604051908082528060200260200182016040528015610882578160200160208202803683370190505b50905082815f8151811061089857610898611608565b6020026020010181815250505f5b600183516108b491906115f5565b811015610a93575f7f00000000000000000000000000000000000000000000000000000000000000006001600160a01b031663e6a439058584815181106108fd576108fd611608565b6020026020010151868560016109139190611599565b8151811061092357610923611608565b60200260200101516040518363ffffffff1660e01b815260040161095d9291906001600160a01b0392831681529116602082015260400190565b602060405180830381865afa158015610978573d5f803e3d5ffd5b505050506040513d601f19601f8201168201806040525081019061099c919061163e565b90506001600160a01b0381166109ee5760405162461bcd60e51b8152602060048201526017602482015276105c98d4ddd85c0e881410525497d393d517d193d55391604a1b60448201526064016101a9565b5f80610a3983878681518110610a0657610a06611608565b602002602001015188876001610a1c9190611599565b81518110610a2c57610a2c611608565b6020026020010151610f11565b91509150610a61858581518110610a5257610a52611608565b60200260200101518383610152565b85610a6d866001611599565b81518110610a7d57610a7d611608565b60209081029190910101525050506001016108a6565b5092915050565b5f805f8342811015610abe5760405162461bcd60e51b81526004016101a9906115cb565b5f610acd8d8d8d8d8d8d610fc5565b6040516323b872dd60e01b815292975090955091506001600160a01b038e16906323b872dd90610b0590339085908a90600401611659565b6020604051808303815f875af1158015610b21573d5f803e3d5ffd5b505050506040513d601f19601f82011682018060405250810190610b45919061167d565b506040516323b872dd60e01b81526001600160a01b038d16906323b872dd90610b7690339085908990600401611659565b6020604051808303815f875af1158015610b92573d5f803e3d5ffd5b505050506040513d601f19601f82011682018060405250810190610bb6919061167d565b506040516335313c2160e11b81526001600160a01b038881166004830152821690636a627842906024016020604051808303815f875af1158015610bfc573d5f803e3d5ffd5b505050506040513d601f19601f82011682018060405250810190610c2091906116be565b92505050985098509895505050505050565b5f5b60018351610c4291906115f5565b811015610edb575f80848381518110610c5d57610c5d611608565b602002602001015185846001610c739190611599565b81518110610c8357610c83611608565b6020026020010151915091505f610c9a8383610ee1565b5090505f87610caa866001611599565b81518110610cba57610cba611608565b602002602001015190505f80836001600160a01b0316866001600160a01b031614610ce657825f610ce9565b5f835b915091505f60028a51610cfc91906115f5565b8810610d085788610dcd565b6001600160a01b037f00000000000000000000000000000000000000000000000000000000000000001663e6a43905878c610d448c6002611599565b81518110610d5457610d54611608565b60200260200101516040518363ffffffff1660e01b8152600401610d8e9291906001600160a01b0392831681529116602082015260400190565b602060405180830381865afa158015610da9573d5f803e3d5ffd5b505050506040513d601f19601f82011682018060405250810190610dcd919061163e565b60405163e6a4390560e01b81526001600160a01b03898116600483015288811660248301529192507f00000000000000000000000000000000000000000000000000000000000000009091169063e6a4390590604401602060405180830381865afa158015610e3e573d5f803e3d5ffd5b505050506040513d601f19601f82011682018060405250810190610e62919061163e565b6040516336cd320560e11b815260048101859052602481018490526001600160a01b0383811660448301529190911690636d9a640a906064015f604051808303815f87803b158015610eb2575f80fd5b505af1158015610ec4573d5f803e3d5ffd5b505060019099019850610c34975050505050505050565b50505050565b5f80826001600160a01b0316846001600160a01b031610610f03578284610f06565b83835b909590945092505050565b5f805f610f1e8585610ee1565b5090505f80876001600160a01b0316630902f1ac6040518163ffffffff1660e01b8152600401606060405180830381865afa158015610f5f573d5f803e3d5ffd5b505050506040513d601f19601f82011682018060405250810190610f8391906116eb565b5091509150826001600160a01b0316876001600160a01b031614610fa8578082610fab565b81815b6001600160701b039182169a911698509650505050505050565b60405163e6a4390560e01b81526001600160a01b03878116600483015286811660248301525f91829182917f00000000000000000000000000000000000000000000000000000000000000009091169063e6a4390590604401602060405180830381865afa158015611039573d5f803e3d5ffd5b505050506040513d601f19601f8201168201806040525081019061105d919061163e565b90506001600160a01b038116611101576040516364e329cb60e11b81526001600160a01b038a8116600483015289811660248301527f0000000000000000000000000000000000000000000000000000000000000000169063c9c65396906044016020604051808303815f875af11580156110da573d5f803e3d5ffd5b505050506040513d601f19601f820116820180604052508101906110fe919061163e565b90505b5f8061110e838c8c610f11565b91509150815f14801561111f575080155b1561112f57889450879350611269565b5f8261113b838c61157c565b61114591906115ac565b90508881116111a9578681101561119e5760405162461bcd60e51b815260206004820152601e60248201527f417263537761703a20494e53554646494349454e545f425f414d4f554e54000060448201526064016101a9565b899550935083611267565b5f826111b5858c61157c565b6111bf91906115ac565b90508a8111156112115760405162461bcd60e51b815260206004820152601b60248201527f417263537761703a204558434553534956455f415f414d4f554e54000000000060448201526064016101a9565b888110156112615760405162461bcd60e51b815260206004820152601e60248201527f417263537761703a20494e53554646494349454e545f415f414d4f554e54000060448201526064016101a9565b95508894505b505b505096509650969350505050565b5f805f60608486031215611289575f80fd5b505081359360208301359350604090920135919050565b6001600160a01b03811681146112b4575f80fd5b50565b80356112c2816112a0565b919050565b5f805f805f8060a087890312156112dc575f80fd5b8635955060208701359450604087013567ffffffffffffffff80821115611301575f80fd5b818901915089601f830112611314575f80fd5b813581811115611322575f80fd5b8a60208260051b8501011115611336575f80fd5b60208301965080955050505061134e606088016112b7565b9150608087013590509295509295509295565b602080825282518282018190525f9190848201906040850190845b818110156113985783518352928401929184019160010161137c565b50909695505050505050565b5f805f805f805f60e0888a0312156113ba575f80fd5b87356113c5816112a0565b965060208801356113d5816112a0565b955060408801359450606088013593506080880135925060a08801356113fa816112a0565b8092505060c0880135905092959891949750929550565b634e487b7160e01b5f52604160045260245ffd5b5f8060408385031215611436575f80fd5b8235915060208084013567ffffffffffffffff80821115611455575f80fd5b818601915086601f830112611468575f80fd5b81358181111561147a5761147a611411565b8060051b604051601f19603f8301168101818110858211171561149f5761149f611411565b6040529182528482019250838101850191898311156114bc575f80fd5b938501935b828510156114e1576114d2856112b7565b845293850193928501926114c1565b8096505050505050509250929050565b5f805f805f805f80610100898b031215611509575f80fd5b8835611514816112a0565b97506020890135611524816112a0565b965060408901359550606089013594506080890135935060a0890135925060c0890135611550816112a0565b8092505060e089013590509295985092959890939650565b634e487b7160e01b5f52601160045260245ffd5b808202811582820484141761159357611593611568565b92915050565b8082018082111561159357611593611568565b5f826115c657634e487b7160e01b5f52601260045260245ffd5b500490565b60208082526010908201526f105c98d4ddd85c0e881156141254915160821b604082015260600190565b8181038181111561159357611593611568565b634e487b7160e01b5f52603260045260245ffd5b5f6020828403121561162c575f80fd5b8135611637816112a0565b9392505050565b5f6020828403121561164e575f80fd5b8151611637816112a0565b6001600160a01b039384168152919092166020820152604081019190915260600190565b5f6020828403121561168d575f80fd5b81518015158114611637575f80fd5b5f80604083850312156116ad575f80fd5b505080516020909101519092909150565b5f602082840312156116ce575f80fd5b5051919050565b80516001600160701b03811681146112c2575f80fd5b5f805f606084860312156116fd575f80fd5b611706846116d5565b9250611714602085016116d5565b9150604084015163ffffffff8116811461172c575f80fd5b80915050925092509256fea26469706673582212208044e875675d40a6600e9aef5e33ef9255ad7cd8018c5f625a152b6a1d9f30cb64736f6c63430008180033","linkReferences":{}},"methodIdentifiers":{"addLiquidity(address,address,uint256,uint256,uint256,uint256,address,uint256)":"e8e33700","factory()":"c45a0155","getAmountOut(uint256,uint256,uint256)":"054d50d4","getAmountsOut(uint256,address[])":"d06ca61f","removeLiquidity(address,address,uint256,uint256,uint256,address,uint256)":"baa2abde","swapExactTokensForTokens(uint256,uint256,address[],address,uint256)":"38ed1739"},"id":18}